{
  "_format": "hh-sol-artifact-1",
  "contractName": "Pool",
  "sourceName": "contracts/Pool.sol",
  "abi": [
    {
      "inputs": [],
      "stateMutability": "nonpayable",
      "type": "constructor"
    },
    {
      "anonymous": false,
      "inputs": [
        {
          "indexed": true,
          "internalType": "uint256",
          "name": "_id",
          "type": "uint256"
        },
        {
          "indexed": true,
          "internalType": "address",
          "name": "_owner",
          "type": "address"
        },
        {
          "indexed": false,
          "internalType": "uint256",
          "name": "value",
          "type": "uint256"
        }
      ],
      "name": "GenerateNewPost",
      "type": "event"
    },
    {
      "inputs": [
        {
          "internalType": "uint256",
          "name": "_value",
          "type": "uint256"
        },
        {
          "internalType": "uint256",
          "name": "lifeTime",
          "type": "uint256"
        }
      ],
      "name": "createNewPost",
      "outputs": [],
      "stateMutability": "nonpayable",
      "type": "function"
    },
    {
      "inputs": [
        {
          "internalType": "uint256",
          "name": "_totalLikes",
          "type": "uint256"
        },
        {
          "internalType": "uint256",
          "name": "_totalDislikes",
          "type": "uint256"
        },
        {
          "internalType": "uint256",
          "name": "_totalOwnerLike",
          "type": "uint256"
        },
        {
          "components": [
            {
              "internalType": "uint256",
              "name": "likes",
              "type": "uint256"
            },
            {
              "internalType": "uint256",
              "name": "dislikes",
              "type": "uint256"
            },
            {
              "internalType": "bool",
              "name": "hasOwnerLike",
              "type": "bool"
            },
            {
              "internalType": "address",
              "name": "user",
              "type": "address"
            }
          ],
          "internalType": "struct Pool.UserActivity[]",
          "name": "_userActivity",
          "type": "tuple[]"
        },
        {
          "components": [
            {
              "internalType": "uint256",
              "name": "value",
              "type": "uint256"
            },
            {
              "internalType": "bool",
              "name": "isActive",
              "type": "bool"
            },
            {
              "internalType": "uint256",
              "name": "createdAt",
              "type": "uint256"
            },
            {
              "internalType": "uint256",
              "name": "lifeTime",
              "type": "uint256"
            }
          ],
          "internalType": "struct Pool.Post",
          "name": "_post",
          "type": "tuple"
        }
      ],
      "name": "withdraw",
      "outputs": [],
      "stateMutability": "nonpayable",
      "type": "function"
    }
  ],
  "bytecode": "0x608060405234801561001057600080fd5b503360405161001e90610089565b61002891906100d7565b604051809103906000f080158015610044573d6000803e3d6000fd5b506000806101000a81548173ffffffffffffffffffffffffffffffffffffffff021916908373ffffffffffffffffffffffffffffffffffffffff1602179055506100f2565b61179380610e8083390190565b600073ffffffffffffffffffffffffffffffffffffffff82169050919050565b60006100c182610096565b9050919050565b6100d1816100b6565b82525050565b60006020820190506100ec60008301846100c8565b92915050565b610d7f806101016000396000f3fe608060405234801561001057600080fd5b50600436106100365760003560e01c8063e0a84d261461003b578063e520fc1e14610057575b600080fd5b61005560048036038101906100509190610876565b610073565b005b610071600480360381019061006c919061090e565b61027f565b005b8060600151428260400151610088919061097d565b106100c8576040517f08c379a00000000000000000000000000000000000000000000000000000000081526004016100bf90610a0e565b60405180910390fd5b600060056002876100d99190610a5d565b116100e55760056100f3565b6002866100f29190610a5d565b5b9050600084826101039190610a8e565b868861010f919061097d565b6101199190610ad0565b905060005b845181101561027557600085828151811061013c5761013b610b04565b5b602002602001015160400151610153576000610155565b835b86838151811061016857610167610b04565b5b60200260200101516020015187848151811061018757610186610b04565b5b60200260200101516000015161019d919061097d565b6101a79190610ad0565b905060008054906101000a900473ffffffffffffffffffffffffffffffffffffffff1673ffffffffffffffffffffffffffffffffffffffff166323b872dd8784815181106101f8576101f7610b04565b5b6020026020010151606001513086856102119190610a5d565b6040518463ffffffff1660e01b815260040161022f93929190610b51565b600060405180830381600087803b15801561024957600080fd5b505af115801561025d573d6000803e3d6000fd5b5050505050808061026d90610b88565b91505061011e565b5050505050505050565b8160008054906101000a900473ffffffffffffffffffffffffffffffffffffffff1673ffffffffffffffffffffffffffffffffffffffff166370a08231336040518263ffffffff1660e01b81526004016102d99190610bd0565b602060405180830381865afa1580156102f6573d6000803e3d6000fd5b505050506040513d601f19601f8201168201806040525081019061031a9190610c00565b1180156103275750600082115b610366576040517f08c379a000000000000000000000000000000000000000000000000000000000815260040161035d90610c79565b60405180910390fd5b60008060009054906101000a900473ffffffffffffffffffffffffffffffffffffffff1673ffffffffffffffffffffffffffffffffffffffff1663dd62ed3e33306040518363ffffffff1660e01b81526004016103c4929190610c99565b602060405180830381865afa1580156103e1573d6000803e3d6000fd5b505050506040513d601f19601f820116820180604052508101906104059190610c00565b90508281101561044a576040517f08c379a000000000000000000000000000000000000000000000000000000000815260040161044190610d0e565b60405180910390fd5b60008054906101000a900473ffffffffffffffffffffffffffffffffffffffff1673ffffffffffffffffffffffffffffffffffffffff166323b872dd3330866040518463ffffffff1660e01b81526004016104a793929190610b51565b600060405180830381600087803b1580156104c157600080fd5b505af11580156104d5573d6000803e3d6000fd5b5050505060018060008282546104eb9190610ad0565b925050819055503373ffffffffffffffffffffffffffffffffffffffff166001547face66430080de4f97d50d7e61dfa4c1a11965c80efd4d809383a28c4407e74418560405161053b9190610d2e565b60405180910390a3505050565b6000604051905090565b600080fd5b600080fd5b6000819050919050565b61056f8161055c565b811461057a57600080fd5b50565b60008135905061058c81610566565b92915050565b600080fd5b6000601f19601f8301169050919050565b7f4e487b7100000000000000000000000000000000000000000000000000000000600052604160045260246000fd5b6105e082610597565b810181811067ffffffffffffffff821117156105ff576105fe6105a8565b5b80604052505050565b6000610612610548565b905061061e82826105d7565b919050565b600067ffffffffffffffff82111561063e5761063d6105a8565b5b602082029050602081019050919050565b600080fd5b600080fd5b60008115159050919050565b61066e81610659565b811461067957600080fd5b50565b60008135905061068b81610665565b92915050565b600073ffffffffffffffffffffffffffffffffffffffff82169050919050565b60006106bc82610691565b9050919050565b6106cc816106b1565b81146106d757600080fd5b50565b6000813590506106e9816106c3565b92915050565b60006080828403121561070557610704610654565b5b61070f6080610608565b9050600061071f8482850161057d565b60008301525060206107338482850161057d565b60208301525060406107478482850161067c565b604083015250606061075b848285016106da565b60608301525092915050565b600061077a61077584610623565b610608565b9050808382526020820190506080840283018581111561079d5761079c61064f565b5b835b818110156107c657806107b288826106ef565b84526020840193505060808101905061079f565b5050509392505050565b600082601f8301126107e5576107e4610592565b5b81356107f5848260208601610767565b91505092915050565b60006080828403121561081457610813610654565b5b61081e6080610608565b9050600061082e8482850161057d565b60008301525060206108428482850161067c565b60208301525060406108568482850161057d565b604083015250606061086a8482850161057d565b60608301525092915050565b6000806000806000610100868803121561089357610892610552565b5b60006108a18882890161057d565b95505060206108b28882890161057d565b94505060406108c38882890161057d565b935050606086013567ffffffffffffffff8111156108e4576108e3610557565b5b6108f0888289016107d0565b9250506080610901888289016107fe565b9150509295509295909350565b6000806040838503121561092557610924610552565b5b60006109338582860161057d565b92505060206109448582860161057d565b9150509250929050565b7f4e487b7100000000000000000000000000000000000000000000000000000000600052601160045260246000fd5b60006109888261055c565b91506109938361055c565b92508282039050818111156109ab576109aa61094e565b5b92915050565b600082825260208201905092915050565b7f546f6f206c6974746c652074696d652068617320706173736564000000000000600082015250565b60006109f8601a836109b1565b9150610a03826109c2565b602082019050919050565b60006020820190508181036000830152610a27816109eb565b9050919050565b7f4e487b7100000000000000000000000000000000000000000000000000000000600052601260045260246000fd5b6000610a688261055c565b9150610a738361055c565b925082610a8357610a82610a2e565b5b828204905092915050565b6000610a998261055c565b9150610aa48361055c565b9250828202610ab28161055c565b91508282048414831517610ac957610ac861094e565b5b5092915050565b6000610adb8261055c565b9150610ae68361055c565b9250828201905080821115610afe57610afd61094e565b5b92915050565b7f4e487b7100000000000000000000000000000000000000000000000000000000600052603260045260246000fd5b610b3c816106b1565b82525050565b610b4b8161055c565b82525050565b6000606082019050610b666000830186610b33565b610b736020830185610b33565b610b806040830184610b42565b949350505050565b6000610b938261055c565b91507fffffffffffffffffffffffffffffffffffffffffffffffffffffffffffffffff8203610bc557610bc461094e565b5b600182019050919050565b6000602082019050610be56000830184610b33565b92915050565b600081519050610bfa81610566565b92915050565b600060208284031215610c1657610c15610552565b5b6000610c2484828501610beb565b91505092915050565b7f696e636f72726563742076616c75650000000000000000000000000000000000600082015250565b6000610c63600f836109b1565b9150610c6e82610c2d565b602082019050919050565b60006020820190508181036000830152610c9281610c56565b9050919050565b6000604082019050610cae6000830185610b33565b610cbb6020830184610b33565b9392505050565b7f636865636b20616c6c6f77616e63650000000000000000000000000000000000600082015250565b6000610cf8600f836109b1565b9150610d0382610cc2565b602082019050919050565b60006020820190508181036000830152610d2781610ceb565b9050919050565b6000602082019050610d436000830184610b42565b9291505056fea2646970667358221220a96d6027ff6491410520631507fcc12cfe4cd472315caa02ab85c52758d2761a64736f6c6343000812003360806040523480156200001157600080fd5b506040516200179338038062001793833981810160405281019062000037919062000304565b6040518060400160405280600b81526020017f536563726574546f6b656e0000000000000000000000000000000000000000008152506040518060400160405280600681526020017f53656372657400000000000000000000000000000000000000000000000000008152506103e8838360049081620000b89190620005b0565b508260059081620000ca9190620005b0565b5033600160006101000a81548173ffffffffffffffffffffffffffffffffffffffff021916908373ffffffffffffffffffffffffffffffffffffffff1602179055506200011e82826200012960201b60201c565b5050505050620007b2565b600160009054906101000a900473ffffffffffffffffffffffffffffffffffffffff1673ffffffffffffffffffffffffffffffffffffffff163373ffffffffffffffffffffffffffffffffffffffff1614620001bc576040517f08c379a0000000000000000000000000000000000000000000000000000000008152600401620001b390620006f8565b60405180910390fd5b81600260008373ffffffffffffffffffffffffffffffffffffffff1673ffffffffffffffffffffffffffffffffffffffff16815260200190815260200160002060008282546200020d919062000749565b925050819055508160008082825462000227919062000749565b925050819055508073ffffffffffffffffffffffffffffffffffffffff16600073ffffffffffffffffffffffffffffffffffffffff167fddf252ad1be2c89b69c2b068fc378daa952ba7f163c4a11628f55a4df523b3ef846040516200028e919062000795565b60405180910390a35050565b600080fd5b600073ffffffffffffffffffffffffffffffffffffffff82169050919050565b6000620002cc826200029f565b9050919050565b620002de81620002bf565b8114620002ea57600080fd5b50565b600081519050620002fe81620002d3565b92915050565b6000602082840312156200031d576200031c6200029a565b5b60006200032d84828501620002ed565b91505092915050565b600081519050919050565b7f4e487b7100000000000000000000000000000000000000000000000000000000600052604160045260246000fd5b7f4e487b7100000000000000000000000000000000000000000000000000000000600052602260045260246000fd5b60006002820490506001821680620003b857607f821691505b602082108103620003ce57620003cd62000370565b5b50919050565b60008190508160005260206000209050919050565b60006020601f8301049050919050565b600082821b905092915050565b600060088302620004387fffffffffffffffffffffffffffffffffffffffffffffffffffffffffffffffff82620003f9565b620004448683620003f9565b95508019841693508086168417925050509392505050565b6000819050919050565b6000819050919050565b6000620004916200048b62000485846200045c565b62000466565b6200045c565b9050919050565b6000819050919050565b620004ad8362000470565b620004c5620004bc8262000498565b84845462000406565b825550505050565b600090565b620004dc620004cd565b620004e9818484620004a2565b505050565b5b81811015620005115762000505600082620004d2565b600181019050620004ef565b5050565b601f82111562000560576200052a81620003d4565b6200053584620003e9565b8101602085101562000545578190505b6200055d6200055485620003e9565b830182620004ee565b50505b505050565b600082821c905092915050565b6000620005856000198460080262000565565b1980831691505092915050565b6000620005a0838362000572565b9150826002028217905092915050565b620005bb8262000336565b67ffffffffffffffff811115620005d757620005d662000341565b5b620005e382546200039f565b620005f082828562000515565b600060209050601f83116001811462000628576000841562000613578287015190505b6200061f858262000592565b8655506200068f565b601f1984166200063886620003d4565b60005b8281101562000662578489015182556001820191506020850194506020810190506200063b565b868310156200068257848901516200067e601f89168262000572565b8355505b6001600288020188555050505b505050505050565b600082825260208201905092915050565b7f6e6f7420616e206f776e65720000000000000000000000000000000000000000600082015250565b6000620006e0600c8362000697565b9150620006ed82620006a8565b602082019050919050565b600060208201905081810360008301526200071381620006d1565b9050919050565b7f4e487b7100000000000000000000000000000000000000000000000000000000600052601160045260246000fd5b600062000756826200045c565b915062000763836200045c565b92508282019050808211156200077e576200077d6200071a565b5b92915050565b6200078f816200045c565b82525050565b6000602082019050620007ac600083018462000784565b92915050565b610fd180620007c26000396000f3fe608060405234801561001057600080fd5b50600436106100a95760003560e01c806370a082311161007157806370a082311461014057806394bf804d1461017057806395d89b411461018c5780639dc29fac146101aa578063a9059cbb146101c6578063dd62ed3e146101e2576100a9565b806306fdde03146100ae578063095ea7b3146100cc57806318160ddd146100e857806323b872dd14610106578063313ce56714610122575b600080fd5b6100b6610212565b6040516100c39190610ba7565b60405180910390f35b6100e660048036038101906100e19190610c62565b6102a4565b005b6100f061038e565b6040516100fd9190610cb1565b60405180910390f35b610120600480360381019061011b9190610ccc565b610397565b005b61012a61058f565b6040516101379190610cb1565b60405180910390f35b61015a60048036038101906101559190610d1f565b610598565b6040516101679190610cb1565b60405180910390f35b61018a60048036038101906101859190610d4c565b6105e1565b005b610194610749565b6040516101a19190610ba7565b60405180910390f35b6101c460048036038101906101bf9190610c62565b6107db565b005b6101e060048036038101906101db9190610c62565b61092c565b005b6101fc60048036038101906101f79190610d8c565b610a90565b6040516102099190610cb1565b60405180910390f35b60606004805461022190610dfb565b80601f016020809104026020016040519081016040528092919081815260200182805461024d90610dfb565b801561029a5780601f1061026f5761010080835404028352916020019161029a565b820191906000526020600020905b81548152906001019060200180831161027d57829003601f168201915b5050505050905090565b80600360003373ffffffffffffffffffffffffffffffffffffffff1673ffffffffffffffffffffffffffffffffffffffff16815260200190815260200160002060008473ffffffffffffffffffffffffffffffffffffffff1673ffffffffffffffffffffffffffffffffffffffff168152602001908152602001600020819055508173ffffffffffffffffffffffffffffffffffffffff163373ffffffffffffffffffffffffffffffffffffffff167f6e11fb1b7f119e3f2fa29896ef5fdf8b8a2d0d4df6fe90ba8668e7d8b2ffa25e836040516103829190610cb1565b60405180910390a35050565b60008054905090565b8281806103a383610598565b10156103e4576040517f08c379a00000000000000000000000000000000000000000000000000000000081526004016103db90610e78565b60405180910390fd5b82600360008773ffffffffffffffffffffffffffffffffffffffff1673ffffffffffffffffffffffffffffffffffffffff16815260200190815260200160002060008673ffffffffffffffffffffffffffffffffffffffff1673ffffffffffffffffffffffffffffffffffffffff16815260200190815260200160002060008282546104709190610ec7565b9250508190555082600260008773ffffffffffffffffffffffffffffffffffffffff1673ffffffffffffffffffffffffffffffffffffffff16815260200190815260200160002060008282546104c69190610ec7565b9250508190555082600260008673ffffffffffffffffffffffffffffffffffffffff1673ffffffffffffffffffffffffffffffffffffffff168152602001908152602001600020600082825461051c9190610efb565b925050819055508373ffffffffffffffffffffffffffffffffffffffff168573ffffffffffffffffffffffffffffffffffffffff167fddf252ad1be2c89b69c2b068fc378daa952ba7f163c4a11628f55a4df523b3ef856040516105809190610cb1565b60405180910390a35050505050565b60006012905090565b6000600260008373ffffffffffffffffffffffffffffffffffffffff1673ffffffffffffffffffffffffffffffffffffffff168152602001908152602001600020549050919050565b600160009054906101000a900473ffffffffffffffffffffffffffffffffffffffff1673ffffffffffffffffffffffffffffffffffffffff163373ffffffffffffffffffffffffffffffffffffffff1614610671576040517f08c379a000000000000000000000000000000000000000000000000000000000815260040161066890610f7b565b60405180910390fd5b81600260008373ffffffffffffffffffffffffffffffffffffffff1673ffffffffffffffffffffffffffffffffffffffff16815260200190815260200160002060008282546106c09190610efb565b92505081905550816000808282546106d89190610efb565b925050819055508073ffffffffffffffffffffffffffffffffffffffff16600073ffffffffffffffffffffffffffffffffffffffff167fddf252ad1be2c89b69c2b068fc378daa952ba7f163c4a11628f55a4df523b3ef8460405161073d9190610cb1565b60405180910390a35050565b60606005805461075890610dfb565b80601f016020809104026020016040519081016040528092919081815260200182805461078490610dfb565b80156107d15780601f106107a6576101008083540402835291602001916107d1565b820191906000526020600020905b8154815290600101906020018083116107b457829003601f168201915b5050505050905090565b600160009054906101000a900473ffffffffffffffffffffffffffffffffffffffff1673ffffffffffffffffffffffffffffffffffffffff163373ffffffffffffffffffffffffffffffffffffffff161461086b576040517f08c379a000000000000000000000000000000000000000000000000000000000815260040161086290610f7b565b60405180910390fd5b81818061087783610598565b10156108b8576040517f08c379a00000000000000000000000000000000000000000000000000000000081526004016108af90610e78565b60405180910390fd5b82600260008673ffffffffffffffffffffffffffffffffffffffff1673ffffffffffffffffffffffffffffffffffffffff16815260200190815260200160002060008282546109079190610ec7565b925050819055508260008082825461091f9190610ec7565b9250508190555050505050565b33818061093883610598565b1015610979576040517f08c379a000000000000000000000000000000000000000000000000000000000815260040161097090610e78565b60405180910390fd5b82600260003373ffffffffffffffffffffffffffffffffffffffff1673ffffffffffffffffffffffffffffffffffffffff16815260200190815260200160002060008282546109c89190610ec7565b9250508190555082600260008673ffffffffffffffffffffffffffffffffffffffff1673ffffffffffffffffffffffffffffffffffffffff1681526020019081526020016000206000828254610a1e9190610efb565b925050819055508373ffffffffffffffffffffffffffffffffffffffff163373ffffffffffffffffffffffffffffffffffffffff167fddf252ad1be2c89b69c2b068fc378daa952ba7f163c4a11628f55a4df523b3ef85604051610a829190610cb1565b60405180910390a350505050565b6000600360008473ffffffffffffffffffffffffffffffffffffffff1673ffffffffffffffffffffffffffffffffffffffff16815260200190815260200160002060008373ffffffffffffffffffffffffffffffffffffffff1673ffffffffffffffffffffffffffffffffffffffff16815260200190815260200160002054905092915050565b600081519050919050565b600082825260208201905092915050565b60005b83811015610b51578082015181840152602081019050610b36565b60008484015250505050565b6000601f19601f8301169050919050565b6000610b7982610b17565b610b838185610b22565b9350610b93818560208601610b33565b610b9c81610b5d565b840191505092915050565b60006020820190508181036000830152610bc18184610b6e565b905092915050565b600080fd5b600073ffffffffffffffffffffffffffffffffffffffff82169050919050565b6000610bf982610bce565b9050919050565b610c0981610bee565b8114610c1457600080fd5b50565b600081359050610c2681610c00565b92915050565b6000819050919050565b610c3f81610c2c565b8114610c4a57600080fd5b50565b600081359050610c5c81610c36565b92915050565b60008060408385031215610c7957610c78610bc9565b5b6000610c8785828601610c17565b9250506020610c9885828601610c4d565b9150509250929050565b610cab81610c2c565b82525050565b6000602082019050610cc66000830184610ca2565b92915050565b600080600060608486031215610ce557610ce4610bc9565b5b6000610cf386828701610c17565b9350506020610d0486828701610c17565b9250506040610d1586828701610c4d565b9150509250925092565b600060208284031215610d3557610d34610bc9565b5b6000610d4384828501610c17565b91505092915050565b60008060408385031215610d6357610d62610bc9565b5b6000610d7185828601610c4d565b9250506020610d8285828601610c17565b9150509250929050565b60008060408385031215610da357610da2610bc9565b5b6000610db185828601610c17565b9250506020610dc285828601610c17565b9150509250929050565b7f4e487b7100000000000000000000000000000000000000000000000000000000600052602260045260246000fd5b60006002820490506001821680610e1357607f821691505b602082108103610e2657610e25610dcc565b5b50919050565b7f6e6f7420656e6f75676820746f6b656e73000000000000000000000000000000600082015250565b6000610e62601183610b22565b9150610e6d82610e2c565b602082019050919050565b60006020820190508181036000830152610e9181610e55565b9050919050565b7f4e487b7100000000000000000000000000000000000000000000000000000000600052601160045260246000fd5b6000610ed282610c2c565b9150610edd83610c2c565b9250828203905081811115610ef557610ef4610e98565b5b92915050565b6000610f0682610c2c565b9150610f1183610c2c565b9250828201905080821115610f2957610f28610e98565b5b92915050565b7f6e6f7420616e206f776e65720000000000000000000000000000000000000000600082015250565b6000610f65600c83610b22565b9150610f7082610f2f565b602082019050919050565b60006020820190508181036000830152610f9481610f58565b905091905056fea2646970667358221220a8b7b0b355ecb2ab76ef0681f229835b0a4ae5bc8c0cfd7a538181a0cc3e0c3464736f6c63430008120033",
  "linkReferences": {},
  "deployedLinkReferences": {}
}